:020000040800F2
:100000000000022039A40008D58A0008D78A000819
:10001000D98A0008DB8A0008DD8A00080000000099
:10002000000000000000000000000000611A00084D
:10003000DF8A000800000000011B0008790B00089F
:100040008DA400088DA400088DA400088DA40008CC
:100050008DA400088DA400088DA400088DA40008BC
:100060008DA400088DA400088DA400088DA40008AC
:100070008DA400088DA400088DA400088DA400089C
:100080008DA400088DA400088DA400088DA400088C
:100090008DA400088DA400088DA400088DA400087C
:1000A0008DA40008E18A00088DA400088DA4000832
:1000B000F18A0008018B00088DA400088DA40008B7
:1000C0008DA400088DA400088DA400088DA400084C
:1000D0008DA400088DA400088DA400088DA400083C
:1000E0008DA400088DA40008000000008DA4000865
:1000F0008DA400088DA400088DA400088DA400081C
:100100008DA400088DA400088DA400088DA400080B
:10011000118B00088DA40008218B00088DA4000815
:100120008DA400088DA400088DA400088DA40008EB
:100130008DA400088DA400088DA400088DA40008DB
:1001400000000000000000000000000000000000AF
:100150008DA400088DA400088DA400088DA40008BB
:100160008DA400088DA400088DA400088DA40008AB
:100170008DA400088DA400088DA400088DA400089B
:100180008DA400088DA400088DA400088DA400088B
:100190008DA400088DA400088DA400088DA400087B
:1001A0008DA400088DA400088DA400088DA400086B
:1001B0008DA400088DA400088DA400088DA400085B
:1001C0008DA400088DA400088DA400088DA400084B
:1001D0008DA400088DA400088DA400088DA400083B
:1001E0008DA400088DA400088DA400088DA400082B
:1001F0008DA400088DA400088DA400088DA400081B
:100200008DA400088DA400088DA400088DA400080A
:100210008DA400088DA400088DA400088DA40008FA
:100220008DA400088DA400088DA400080000000023
:100230008DA400088DA40008000000008DA4000813
:100240008DA400088DA400088DA400088DA40008CA
:100250008DA400088DA400088DA400088DA40008BA
:100260008DA400088DA400088DA400088DA40008AA
:100270008DA400088DA400088DA4000800000000D3
:100280008DA400088DA400088DA4000800000000C3
:08029000000000008DA400082D
:1002A00053B94AB9002908BF00281CBF4FF0FF31DD
:1002B0004FF0FF3000F00CB8ADF1080C6DE904CE42
:1002C0000AF08EFCDDF804E0DDE9022304B070479B
:1002D000704700BF08B5064B1A783AB9054A1AB1FB
:1002E0000548AFF30080024B01221A7008BD00BF21
:1002F000F80000200000000000AF000808B5034B24
:100300001BB103490348AFF3008008BD00000000A3
:10031000FC00002000AF00087047704710B5074C84
:100320000A21A06800F097FD054B1B685B6820461A
:100330009847A06800F0BEFD10BD00BF88480020AF
:100340001C00002050B182685AB1C26862B10369D2
:100350000BB1002070474FF0FF3070474FF0FF3077
:1003600070474FF0FF3070474FF0FF307047502814
:1003700002D10870002070476FF0020070472DE92D
:10038000F04106460D4690461C461846FFF7DAFF38
:100390000746B0FA80F04009002D08BF002078B170
:1003A000637D13B946F080031E46636842462946C2
:1003B0003046A568A847207530B93846BDE8F081B9
:1003C0004FF0FF331F46F8E76FF001031F46F4E7D5
:1003D00038B108B50B46014601222820FFF7CFFFB0
:1003E00008BD4FF0FF30704710B582B001460DF1E7
:1003F0000700FFF7EDFF044C2070642002F022FCA0
:1004000094F9000002B010BD1401002010B582B0B4
:100410000446FFF797FF034610B9627D1AB15BB13E
:10042000184602B010BD234601220DF10701104607
:10043000FFF7A5FF0346F2E7234601220DF106016F
:100440001046FFF79CFF03460028E9D19DF80630CF
:1004500063B12046FFF7C8FF03460028E0D12146DC
:100460009DF80600FFF783FF0346D9E76FF003030B
:10047000D6E72DE9F04781460E4690461D461846C0
:10048000FFF760FF8246B0FA80F04009002E08BFF7
:10049000002018B36C7D7CB904EB09006B68012265
:1004A0003119C0B2EF68B84728750134E4B2444549
:1004B00006D20028F0D003E0013CE4B2012C05D9BB
:1004C00095F9143073B95046BDE8F087EC686B6855
:1004D000424631464846A0472875F1E74FF0FF33C2
:1004E0009A46F0E76FF001039A46ECE710B582B048
:1004F0000346044601220DF107013720FFF73FFFB5
:1005000008B102B010BD9DF8073003F07F028DF8EE
:10051000072003F0030343F070038DF807302346F0
:1005200001220DF107013720FFF7A3FF0028E8D1D2
:10053000234601220DF107013120FFF720FF00289B
:10054000DFD19DF8073003F0C0038DF80730234654
:1005500001220DF107013120FFF78BFF0028D0D1D8
:10056000234601220DF107011820FFF708FF00289C
:10057000C7D19DF8073003F0FC038DF80730234600
:1005800001220DF107011820FFF773FFB9E730B51D
:1005900083B004460B460D4601220DF107013720BA
:1005A000FFF7EDFE08B103B030BD9DF8073043F012
:1005B00080028DF8072023F0030363F07F0304F02B
:1005C000030018438DF807002B4601220DF10701A7
:1005D0003720FFF74EFFE6E730B583B004460D46FF
:1005E0001346694600200090ADF8040006221D2045
:1005F000FFF7C5FED0B99DF802209DF801301B021F
:1006000043EA02439DF80020134307EE103AB8EE88
:10061000C77B9FED136B27EE067BB7EEC77B84EDA0
:10062000017AAB78012B03D00023236003B030BDE7
:100630009DF805209DF804301B0243EA02439DF813
:100640000320134307EE103AB8EE477B9FED066B8D
:1006500027EE067BB7EEC77B84ED007AE6E700BFA6
:10066000000000000000F03E000000000000903F8D
:10067000D8B110B582B00B460446022201A936203B
:10068000FFF77DFE78B99DF8043003F00702227071
:10069000C3F3C2026270C3F38013A3709DF80530E8
:1006A000C3F38403E37002B010BD4FF0FF30704716
:1006B000E8B110B582B00B460446022201A93020F1
:1006C000FFF75DFE9DF80430C3F3C002A270C3F3D0
:1006D0004012E270C3F3800323719DF8053003F0EC
:1006E00007022270C3F3C203637002B010BD4FF063
:1006F000FF30704730B585B005460C4600230293A5
:100700008DF80C3001930B4601220DF10F011820DA
:10071000FFF735FE9DF80F3003F003038DF80F301F
:1007200080B19DF80730182B0AD99DF80F303BB9DE
:100730009DF8083023B99DF809300BB904232B70BC
:1007400005B030BD214601A8FFF792FF0028E8D18F
:10075000214602A8FFF7ACFFE3E788B330B583B0CA
:100760000D4604460B4601220DF107013720FFF725
:1007700006FE58B99DF8072002F00303022B1CD097
:1007800009D883B1012B03D10123237003B030BDFD
:100790006FF00600FAE7032B02D103232370F5E77D
:1007A0006FF00600F2E7D20902D000232370EDE7D4
:1007B00029462046FFF79EFFE8E702232370E5E77E
:1007C0004FF0FF30704770B582B006460C460DF111
:1007D0000700FFF7C2FF054640B99DF8073043B94F
:1007E00025B9032E11D873B2B3B9DEB9284602B0C9
:1007F00070BD2146FFF7CBFE05460028F6D12369E0
:10080000616840F6C4109847EAE7042E0ED12046EE
:10081000FFF76CFE0546E9E721463046FFF7B7FED5
:100820000546E3E76FF006031D46DFE76FF00603BA
:100830001D46DBE710B582B0014604460DF1070006
:10084000FFF78BFF18B99DF80730042B01D002B0D9
:1008500010BD21460020FFF7B6FFF8E730B583B0A2
:100860000023ADF80430002843D00D460446C37879
:10087000172B04D80846FFF7DDFF034638B92B468F
:10088000022201A93620FFF77AFD034610B118466F
:1008900003B030BD9DF80420237803F0070322F055
:1008A000070213438DF804306278D20002F0380258
:1008B00023F0380313438DF80430A278920102F03C
:1008C000400223F0400313438DF804309DF80530B7
:1008D000E278920002F07C0223F07C0313438DF84F
:1008E00005302B46022201A93620FFF7C2FD034640
:1008F000CDE74FF0FF33CAE730B585B00D4614465B
:100900008DF80F006423009301230DF10F028E2157
:100910000948006803F062F810B1012005B030BD4D
:1009200064230093A3B22A468E210348006803F093
:1009300023F90020F2E700BF4C01002080B582B00F
:1009400002AF9646531C083222F00702ADEB020DAF
:1009500002AA8DF80800002006E000F1010C085CF6
:1009600002F80C005FFA8CF07045F6D30A21009172
:100970009BB28E210448006803F030F808B9BD46E8
:1009800080BD0120FBE700BF4C01002008B5034BF0
:10099000A3FB0030800902F055F908BDD34D621069
:1009A00038B504461C4A1D491D48FFF715FE05468B
:1009B00008B1284638BD1A4B93ED007AB7EEC77AD6
:1009C0009FED0F1B9FED100B87EE000B09F0A0FDB4
:1009D000B7EE007B37EE407B9FED0D6B27EE067B7D
:1009E000104B83ED007B93ED007B0F4B93ED006B81
:1009F00037EE467B84ED007BDBE700BFAFF3008082
:100A0000637FD93D7958C83F00000000D0BCF84052
:100A10000000000040A5E540340100203001002026
:100A20002801002020010020180100200000000003
:100A300010B52DED028B82B09FED118B8DED008BEB
:100A40000024092C0ED86846FFF7AAFF034688B990
:100A50009DED007B38EE078B0A2002F0F3F801349D
:100A6000E4B2EEE7B2EE046B88EE067B064B83ED54
:100A7000007B0023184602B0BDEC028B10BD00BF06
:100A800000000000000000001801002010B5124C0A
:100A9000124BA360124BE360124B23610123637579
:100AA000642002F0CFF82046FFF7B0FC00B110BD83
:100AB0000D480A23C3700123837000234370037021
:100AC0002146FFF7CBFE10B1FFF7B2FFEFE721465B
:100AD0000120FFF778FEF7E734010020F90800084D
:100AE0003D0900088D0900083001002008B51346B3
:100AF0000A460146024806F093F800B1012008BDFD
:100B00006C47002008B513460A460146024806F025
:100B1000F9F800B1012008BD6C47002008B5034872
:100B200006F04EFC043818BF012008BD6C470020B9
:100B300008B50146014806F081FB08BD6C4700205E
:100B400000B583B001238DF8073000F08DFA08B9A5
:100B50008DF807009DF8070003B000BD08B5FFF74A
:100B6000EFFF012801D0022008BD024806F039FC41
:100B7000FAE700BF6C47002008B54FF0E0231B697F
:100B800009F01CF9012800D108BD00F0EBFFFBE7DC
:100B9000EFF305832BB9064B186828B901221A60B8
:100BA00070476FF0050070474FF0FF30704700BF8F
:100BB0000808002008B509F001F940B103460228F1
:100BC00006D0044B1B68012B02D0002300E0032356
:100BD000184608BD0808002008B5EFF3058373B96F
:100BE0000A4B1B68012B0DD1094B4FF00002DA773D
:100BF000064B02221A6008F0B7FD002008BD6FF016
:100C00000500FBE74FF0FF30F8E700BF08080020C1
:100C100000ED00E008B5EFF3058343B909F0CEF825
:100C200040B1022808D108F0EBFD002008BD6FF0AC
:100C30000500FBE70120F9E74FF0FF30F6E708B5C4
:100C4000EFF305837BB909F0B9F818B102280DD18B
:100C5000002008BD08F07CFE0128FAD009F0AEF8AB
:100C600038B10120F5E76FF00500F2E74FF0FF30F3
:100C7000EFE74FF0FF30ECE708B5EFF3058313B172
:100C800008F0CCFD08BD08F0C3FDFBE770B586B0E9
:100C900000230593EFF3058343BB38B3002A3DD00F
:100CA000D2F800E093692BB11D46013B372B03D9E5
:100CB00000201CE018231D46536813F0010F44D197
:100CC000D2F814C0BCF1000F13D04FEA9C031E46AB
:100CD00093683BB1D4685B2C04D9146914B1BCF19E
:100CE000000F11D143B14FF0FF330BB3059806B09D
:100CF00070BD80231E46EBE7D368B3B91369002BA0
:100D0000F3D04FF0FF33F0E70293019400950B46C8
:100D10003246714608F0B6FC0590E7E79646134662
:100D20001822154680221646DFE74FF0FF33DCE736
:100D300005AB019300950B46B2B2714608F0E2FC98
:100D40000128D3D000230593D0E70020CFE7EFF3AD
:100D500005835BB94FF0E0234FF08052C3F8042DB8
:100D6000BFF34F8FBFF36F8F002070476FF0050008
:100D7000704708B5EFF305832BB900B908BD08F03B
:100D8000B7FE0020FAE76FF00500F7E7EFF3058301
:100D900073B910B582B0044608F03AFD0190211AEB
:100DA000002908DD01A808F04FFE002002B010BDA8
:100DB0006FF0050070476FF00300F7E770B5EFF3D1
:100DC0000585002D42D1044620B3436803F0010598
:100DD00013F0080F3DD184B3A16811B1E3684F2B24
:100DE00020D8C9B14FF0FF3373BB45B3042001F0E5
:100DF000E5F906462EB104B124682146304601F0DB
:100E00007FFC002E0CBF002505F00105FDB146F06A
:100E100001061CE02B46DBE7E368002BE4D04FF033
:100E2000FF33E1E725B1042001F0D3F90646E1E7FD
:100E3000012001F0CEF90646DCE72346D4E7012085
:100E400001F0BCF90646D5E70026DAE70026304671
:100E500070BD0026FBE7EFF30582DAB910B5034653
:100E60000C4620F0010003F00101012B15D941B11E
:100E7000214601F0CCFB012812D09CB16FF001009B
:100E80000FE0214601F0EDFA01280ED07CB16FF0A1
:100E9000010006E06FF0050070476FF0030000E00E
:100EA000002010BD6FF00200FBE70020F9E76FF0B3
:100EB0000200F6E7EFF30582B2B908B5034620F069
:100EC000010003F00101012B11D929B101F090F9C2
:100ED00001280FD1002008BD0B460A4601F09EF8FC
:100EE00001280AD10020F6E76FF0050070476FF087
:100EF0000300F0E76FF00200EDE76FF00200EAE7B1
:100F000030B583B0EFF30583002B3ED11446CB1AE6
:100F100018BF012300283DD0002B3BD082B393683B
:100F20004BB1D2684F2A06D9226922B101FB00FCDD
:100F3000656965451CD273B14FF0FF336BBB1A4630
:100F400001F048F8054615B304B124682146284647
:100F500001F0D6FB1BE0E368A3B9236913B14FF09E
:100F6000FF33EBE76369002BE8D04FF0FF33E5E791
:100F70004FF0000CCDF800C000F0D7FF0546E2E7C7
:100F80001346DBE74FF0FF33D8E700231D46284622
:100F900003B030BD00231D46F9E700231D46F6E7E8
:100FA00010B582B01A46EFF30583CBB1002918BF04
:100FB000002822D022BB019201AA01F049FB01289E
:100FC00021D1019850B14FF0E0234FF08052C3F887
:100FD000042DBFF34F8FBFF36F8F002002B010BD01
:100FE000994218BF984211D0144601F08BF901289C
:100FF0000FD084B16FF00100F0E76FF00300EDE770
:101000006FF00300EAE76FF00200E7E76FF003001C
:10101000E4E70020E2E76FF00200DFE7034B036044
:10102000034B0B6080231360704700BFAC070020A8
:10103000AC050020034B0360034B0B604FF480733F
:1010400013607047500500205001002008B5034987
:10105000034800F043F8034B187008BD0C0800204B
:1010600060AF00081008002008B52021034802F0F6
:1010700099FA08B9012008BD0020FCE700100258C9
:10108000154B5B7A33BB10B5844603F0FF00124B5F
:1010900093F809E05FFA8EFE4FF0000403F80E406B
:1010A00093F809E003EB8E0ECEF804C093F809C064
:1010B0009C448CF808205A7A02F1010C5FFA8CFCEF
:1010C00083F809C030320A703A234B702F238B709B
:1010D000CC7010BD012070471408002008B5002214
:1010E000FFF7CEFF08BD7047124A12F0070F1ED05F
:1010F000D11D21F00701C1F5705313440A460E4873
:101100000260002141601344083B23F007030B48B1
:10111000036059601960991A51601360084B196097
:10112000084B1960084B4FF000421A6070474FF4AB
:101130007053E4E7400800203808002034080020FD
:101140002C0800203008002020080020144B1A46EC
:101150001B688342FBD3516802EB010C844509D024
:10116000416800EB010C634509D00360904200D058
:10117000106070474068014451601046F0E7DFF8A6
:1011800024C0DCF800C0634506D05B6819444160A8
:1011900013681B680360E9E7C0F800C0E6E700BF1A
:1011A000380800203408002038B5044608F028FB31
:1011B000384B1B68B3B1384B1B681C4250D1002C14
:1011C00050D004F1080214F0070F02D022F00702F9
:1011D0000832002A55D0314B1B68934253D3304913
:1011E0000C6804E0FFF780FFE5E721461C466368D2
:1011F000934202D22368002BF7D1264B1B68A342EF
:1012000043D00D68083523680B6063689B1A102B68
:1012100010D9A01810F0070F08D04FF0500383F337
:101220001188BFF36F8FBFF34F8FFEE7436062609B
:10123000FFF78CFF626819490B689B1A0B6019490C
:1012400009688B4201D217490B60134B1B6813438B
:10125000636000232360144A13680133136002E0C3
:10126000002500E0254608F073FB15F0070F0ED0AF
:101270004FF0500383F31188BFF36F8FBFF34F8F8D
:10128000FEE71546EFE70025EDE70025EBE72846EA
:1012900038BD00BF3408002020080020300800209E
:1012A000380800202C08002028080020002835D00D
:1012B00038B50446A0F108031D4650F8043C184A0E
:1012C0001268134208D14FF0500383F31188BFF323
:1012D0006F8FBFF34F8FFEE750F8081C41B14FF0FE
:1012E000500383F31188BFF36F8FBFF34F8FFEE777
:1012F00023EA020340F8043C08F082FA54F8041C84
:10130000084A13680B4413602846FFF71FFF064A7C
:1013100013680133136008F01BFB38BD704700BF32
:1013200020080020300800202408002000F10803D5
:1013300043604FF0FF328260C360036100230360AB
:10134000704700230361704743684B609A688A6066
:10135000516099600861036801330360704710B4FD
:1013600002460846D1F800C0BCF1FF3F11D002F19F
:10137000080319465B681C686445FAD94B684360EA
:10138000986081604860026113680133136010BC8B
:1013900070471169F2E70369416882688A604168B1
:1013A00051605A68824206D0002202611A68013AEE
:1013B0001A601868704782685A60F5E7054B064A5C
:1013C0001A6000225A609A60DA601A6108225A6133
:1013D000704700BF6C4700200070005230B585B0E8
:1013E0000024009401940294039401F0AFFC0123C3
:1013F0008DF800308DF8014001941F228DF80820EF
:1014000087228DF809208DF80A408DF80B408DF861
:101410000C308DF80D308DF80E408DF80F40684679
:1014200001F0B2FC042001F09FFC05B030BD0000CB
:101430002DE9F0438DB007AD00240794089409947A
:101440000A940B94474BD3F8E02042F01002C3F803
:10145000E020D3F8E02002F010020192019AD3F8C4
:10146000E02042F08002C3F8E020D3F8E02002F050
:1014700080020292029AD3F8E02042F00102C3F8FF
:10148000E020D3F8E02002F001020392039AD3F89F
:10149000E02042F00202C3F8E020D3F8E02002F09E
:1014A00002020492049AD3F8E02042F00402C3F846
:1014B000E020D3F8E02002F004020592059AD3F868
:1014C000E02042F00802C3F8E020D3F8E03003F057
:1014D00008030693069B244E224642F252013046F0
:1014E00002F067F8DFF8849022460721484602F0B0
:1014F00060F8DFF87C8022461821404602F059F857
:1015000042F2520307930127089709940A94294647
:10151000304601F039FF20230793089402230993F2
:101520002946304601F030FF0723079308970994B6
:101530000A942946484601F027FF40F20123079309
:10154000089409942946304601F01EFF182307939A
:10155000089709940A942946404601F015FF0DB0FA
:10156000BDE8F083004402580010025800040258FD
:10157000000C025808B50120FFF7FBFBFBE7000059
:1015800008B50268034B9A4200D008BD01F048FB41
:10159000FBE700BF0000014072B6FEE708B5114846
:1015A000114B0360114B4360002383600122C26032
:1015B000036143618361C361036202F0ABF950B917
:1015C0000146084802F092FB38B90146054802F08E
:1015D000BAFB20B908BDFFF7DFFFFFF7DDFFFFF71C
:1015E000DBFF00BFE847002000540040380F300008
:1015F00008B51348134B03604FF480034360002386
:1016000083600722C260036143614FF080628261A0
:101610004FF04052C261036243628362C36243631C
:101620008363C363036443648364C3640365436582
:10163000836505F041FF00B908BDFFF7ADFF00BFAE
:10164000E44600200030014008B51548154B036002
:101650004FF41653436000238360C36003610C2280
:1016600042618361C36103624362836207F068F988
:1016700070B901460A4807F0E3F958B9014608482D
:1016800007F003FA40B9064807F0BBF930B908BDC6
:10169000FFF782FFFFF780FFFFF77EFFFFF77CFF7A
:1016A0006C450020004C004008B51548154B036000
:1016B0004FF4E133436000238360C36003610C2275
:1016C00042618361C36103624362836207F038F958
:1016D00070B901460A4807F0B3F958B901460848FD
:1016E00007F0D3F940B9064807F08BF930B908BDC7
:1016F000FFF752FFFFF750FFFFF74EFFFFF74CFFDA
:10170000444400200078004008B51548154B03609C
:101710004FF41653436000238360C36003610C22BF
:1017200042618361C36103624362836207F008F927
:1017300070B901460A4807F083F958B901460848CC
:1017400007F0A3F940B9064807F05BF930B908BDC6
:10175000FFF722FFFFF720FFFFF71EFFFFF71CFF39
:10176000D84400200050004000B585B0002301930C
:10177000029303930D480E4A02601F224260836069
:101780004CF24F33C3608023836106F02DF940B9DA
:101790000190039001A9054806F0FEF918B905B0BB
:1017A00000BDFFF7F9FEFFF7F7FE00BF004600207F
:1017B0000010004000B589B0002304930593069300
:1017C00007930193029303931248134A02603F2246
:1017D0004260836049F63F42C260036180238361B7
:1017E00006F002F980B94FF48053049304A9094824
:1017F00006F036F950B90190039001A9054806F0AA
:10180000CBF928B909B000BDFFF7C6FEFFF7C4FE4B
:10181000FFF7C2FE4C4600200004004000B589B02E
:101820000023049305930693079301930293039374
:1018300012484FF08042026043608360104AC260E9
:1018400003618023836106F0CFF880B94FF48053A1
:10185000049304A9094806F003F950B901900390D4
:1018600001A9064806F098F928B909B000BDFFF7AC
:1018700093FEFFF791FEFFF78FFE00BF9846002012
:10188000528D200000B59DB04C22002109A808F01F
:10189000FEFD2022002101A808F0F9FD022002F03F
:1018A000B5FC00230093254BDA6A22F00102DA62CC
:1018B000DB6A03F001030093214A936923F4404358
:1018C00043F480439361936903F440430093009B86
:1018D0001B4B9B6913F4005FFAD0032309934FF469
:1018E00080330A9301230C9340230D930223129318
:1018F0001393042214922622159216931793189389
:10190000082219921A9300231B9309A802F0A8FC3D
:1019100080B93F23019302900390049005904022E8
:10192000069207900890012101A803F0EDF818B97C
:101930001DB000BDFFF730FEFFF72EFE000400587B
:101940000048025808B5FFF749FD01F039F9FFF7E3
:1019500099FFFFF76DFDFFF721FEFFF72FFDFFF762
:1019600047FEFFF771FEFFF79FFEFFF7CDFEFFF783
:101970006DFBFFF7F9FEFFF71DFFFFF74FFF00F0CC
:10198000FFFF01F005F8FFF703F9064A00210648BA
:10199000FFF77CF9054B1860054801F0E5F8FFF703
:1019A0001BF9FEE73CAF0008751500084044002015
:1019B0004C00002082B0002301930D4B1B68B3F153
:1019C000FF3F08D04FF0500383F31188BFF36F8FB0
:1019D000BFF34F8FFEE74FF0500383F31188BFF33F
:1019E0006F8FBFF34F8F019B002BFCD002B070476D
:1019F0001400002008480068006880F308884FF051
:101A0000000080F3148862B661B6BFF34F8FBFF356
:101A10006F8F00DF00BF000008ED00E0DFF80C0072
:101A2000016841F4700101607047000088ED00E03A
:101A30004FF0807340F8043C21F0010140F8081C8D
:101A4000054B40F80C3C40F8202C6FF0020340F8A6
:101A5000243C4438704700BFB5190008000000005E
:101A6000074B19680868B0E8F04F80F30988BFF3A6
:101A70006F8F4FF0000080F311887047AFF3008044
:101A8000F84D00204FF0500383F31188BFF36F8FA0
:101A9000BFF34F8F0B4A136801331360012B00D043
:101AA00070474FF0E023D3F8043D13F0FF0FF7D059
:101AB0004FF0500383F31188BFF36F8FBFF34F8F45
:101AC000FEE700BF14000020094B1B6843B94FF02C
:101AD000500383F31188BFF36F8FBFF34F8FFEE77F
:101AE000013B034A13600BB983F31188704700BFB1
:101AF00014000020000000000000000000000000B2
:101B0000EFF30980BFF36F8F154B1A681EF0100FAB
:101B100008BF20ED108A20E9F04F106009B44FF0A3
:101B2000500080F31188BFF34F8FBFF36F8F08F021
:101B300005F84FF0000080F3118809BC19680868A7
:101B4000B0E8F04F1EF0100F08BFB0EC108A80F321
:101B50000988BFF36F8F7047AFF30080AFF3008049
:101B6000F84D002008B54FF0500383F31188BFF300
:101B70006F8FBFF34F8F07F059FE28B14FF0E0236E
:101B80004FF08052C3F8042D002383F3118808BD61
:101B90004FF0E022002313619361054B1B68054958
:101BA000A1FB03139B09013B53610723136170479A
:101BB000A0000020D34D62104FF0E023D3F8002D99
:101BC0003E4B9A421CD04FF0E023D3F8002D3C4B03
:101BD0009A421ED010B582B03A4B1A78D2B2019216
:101BE000FF221A701B78DBB28DF803309DF80330AA
:101BF00003F05003344A1370344B07221A601BE081
:101C00004FF0500383F31188BFF36F8FBFF34F8FF3
:101C1000FEE74FF0500383F31188BFF36F8FBFF3DC
:101C20004F8FFEE7294A1368013B13609DF803308C
:101C30005B00DBB28DF803309DF8033013F0800FAA
:101C4000F0D1224B1B68032B08D04FF0500383F3D5
:101C50001188BFF36F8FBFF34F8FFEE71B021B4A44
:101C6000136003F4E0631360019BDBB2154A137049
:101C70004FF0E022D2F8203D43F47003C2F8203D3B
:101C8000D2F8203D43F070431446C2F8203DFFF7E0
:101C90007FFF0F4B00221A60FFF7C0FED4F8343FDD
:101CA00043F04043C4F8343FFFF7A4FE07F046FF7B
:101CB000FFF780FE002002B010BD00BF71C20F41CF
:101CC00070C20F4100E400E0404800203C48002082
:101CD00014000020EFF305830F2B0ED9114A9A5CF4
:101CE000114B1B789A4208D24FF0500383F31188AE
:101CF000BFF36F8FBFF34F8FFEE74FF0E023D3F8B2
:101D00000C3D03F4E063094A1268934208D94FF08E
:101D1000500383F31188BFF36F8FBFF34F8FFEE73C
:101D2000704700BFF0E300E0404800203C4800203E
:101D30000346406A18B11B6B1868C0F13800704741
:101D400010B50446FFF79EFEA26BE36B9A4204D0E7
:101D50000024FFF7B9FE204610BD0124F9E710B5B5
:101D60000446FFF78FFEA36B2BB901231C46FFF738
:101D7000ABFE204610BD00231C46F8E770B50446B4
:101D80001646856B026C5AB903681BB100200135F9
:101D9000A56370BD806808F06DF80023A360F6E7C6
:101DA0006EB9406808F0A6FB6368226C1344636058
:101DB000A268934219D3236863603046E7E7C0689E
:101DC00008F098FBE368226C51429B1AE36022689A
:101DD000934202D2A3680B44E360022E01D000209C
:101DE000D5E725B1013D0020D1E73046CFE72846B1
:101DF000CDE70346026C6AB110B50846D9681144B4
:101E0000D9609C68A14201D31968D960D96808F0EB
:101E100071FB10BD704738B50546FFF733FE95F8E6
:101E2000454064B201E0013C64B2002C0ADD6B6AFB
:101E300043B105F1240007F01DFF0028F3D007F09F
:101E4000B1FFF0E7FF2385F84530FFF73DFEFFF7D0
:101E500019FE95F8444064B201E0013C64B2002CE4
:101E60000ADD2B6943B105F1100007F003FF0028DC
:101E7000F3D007F097FFF0E7FF2385F84430FFF732
:101E800023FE38BD38B5E0B10D460446FFF7FAFD34
:101E90002368E26B216C01FB0230A0600020A0638C
:101EA0006360013A02FB0133E360FF2384F84430AE
:101EB00084F84530FDB9236963B9FFF705FE0120B9
:101EC00038BD4FF0500383F31188BFF36F8FBFF31A
:101ED0004F8FFEE704F1100007F0CCFE0028ECD095
:101EE0004FF0E0234FF08052C3F8042DBFF34F8F23
:101EF000BFF36F8FE1E704F11000FFF717FA04F169
:101F00002400FFF713FAD8E738B51D46049C0B46AA
:101F100049B92460E063236401212046FFF7B2FF42
:101F200084F84C5038BD2260F4E740B94FF05003BC
:101F300083F31188BFF36F8FBFF34F8FFEE710B5A8
:101F400084B01C46844683B10B1E18BF0123002AAF
:101F500008BF43F001038BB94FF0500383F311889E
:101F6000BFF36F8FBFF34F8FFEE74FF0500383F344
:101F70001188BFF36F8FBFF34F8FFEE7B1FA81F384
:101F80005B09002A18BF43F0010343B94FF0500327
:101F900083F31188BFF36F8FBFF34F8FFEE750239A
:101FA0000393039B502B08D04FF0500383F3118809
:101FB000BFF36F8FBFF34F8FFEE7039B012384F8BE
:101FC000463000949DF818306046FFF79DFF20468C
:101FD00004B010BD40B94FF0500383F31188BFF334
:101FE0006F8FBFF34F8FFEE7F0B583B01646044600
:101FF0000D4601FB00F05030FFF7D6F802460746C9
:1020000048B1002380F846300090334650322946CC
:102010002046FFF779FF384603B0F0BDF0B585B034
:10202000019288B10F461D460446B1B1022D20D160
:10203000E36B012B1DD04FF0500383F31188BFF3E6
:102040006F8FBFF34F8FFEE74FF0500383F311887C
:10205000BFF36F8FBFF34F8FFEE7036C002BE5D00C
:102060004FF0500383F31188BFF36F8FBFF34F8F8F
:10207000FEE707F0A3FE064658B9019B002B48D0A7
:102080004FF0500383F31188BFF36F8FBFF34F8F6F
:10209000FEE700263DE02A4639462046FFF76EFE61
:1020A000636A7BB948B14FF0E0234FF08052C3F828
:1020B000042DBFF34F8FBFF36F8FFFF705FD012096
:1020C00005B0F0BD04F1240007F0D4FD0028F4D0E1
:1020D0004FF0E0234FF08052C3F8042DBFF34F8F31
:1020E000BFF36F8FE9E7FFF7EFFC0020E8E702A8F6
:1020F00007F008FE012619E0002384F8443021E0AF
:10210000002384F8453023E02046FFF784FE07F0E3
:102110001FFCFFF7B7FCA26BE36B9A42BBD3022D07
:10212000B9D0019B002BDED0002EE0D0FFF7CCFC15
:1021300007F066FBFFF7A6FC94F8442052B2B2F118
:10214000FF3FD9D094F8452052B2B2F1FF3FD7D02B
:10215000FFF7BAFC01A902A807F0E0FDD8B92046B4
:10216000FFF7EEFD0028CFD0019904F1100007F031
:102170004BFD2046FFF74FFE07F0EAFB0028C8D1D1
:102180004FF0E0234FF08052C3F8042DBFF34F8F80
:10219000BFF36F8FBDE72046FFF73DFE07F0D8FB8A
:1021A00000208DE748B108B5002181600160C16061
:1021B0000B460A46FFF732FF08BD704710B50246CE
:1021C00000210120FFF706FF0446FFF7EBFF204642
:1021D00010BD10B582B00B460090002211460120C0
:1021E000FFF7A3FE0446FFF7DDFF204602B010BD57
:1021F00038B540B1054683681C4607F0D9FD8442D6
:102200000AD0002038BD4FF0500383F31188BFF38C
:102210006F8FBFF34F8FFEE7EB68013BEB600BB1B5
:102220000120EFE71A4619462846FFF7F7FE01207E
:10223000E8E72DE9F84390B10F4690461E46044664
:10224000B1B1022E20D1E36B012B1DD04FF0500312
:1022500083F31188BFF36F8FBFF34F8FFEE74FF00B
:10226000500383F31188BFF36F8FBFF34F8FFEE7E7
:10227000036C002BE5D04FF0500383F31188BFF3BC
:102280006F8FBFF34F8FFEE7FFF724FDEFF311834E
:102290004FF0500282F31188BFF36F8FBFF34F8F5F
:1022A0009946A26BE36B9A4206D3022E04D000201B
:1022B00089F31188BDE8F88394F845305DB2A36BCB
:1022C000324639462046FFF759FDB5F1FF3F06D0AB
:1022D0002B4601335BB284F845300120E8E7636A9E
:1022E0000BB90120E4E704F1240007F0C3FC28B196
:1022F00043462BB10120C8F80000D9E70120D7E7F9
:102300000120D5E7F0B585B0019290B10F460446A3
:10231000C1B107F053FD064600BB019B002B5ED008
:102320004FF0500383F31188BFF36F8FBFF34F8FCC
:10233000FEE74FF0500383F31188BFF36F8FBFF3B5
:102340004F8FFEE7036C002BE3D04FF0500383F375
:102350001188BFF36F8FBFF34F8FFEE700263EE07B
:1023600039462046FFF745FD013DA563236923B9A2
:10237000FFF7AAFB012005B0F0BD04F1100007F043
:1023800079FC0028F4D04FF0E0234FF08052C3F8DE
:10239000042DBFF34F8FBFF36F8FE9E7FFF794FB77
:1023A0002846E8E702A807F0ADFC012621E000235B
:1023B00084F8443029E0002384F845302BE020469F
:1023C000FFF729FD07F0C4FA09E02046FFF723FDD7
:1023D00007F0BEFA2046FFF7C2FC00283FD1FFF706
:1023E00051FBA56B002DBBD1019B002BD6D0002E3D
:1023F000D8D0FFF769FB07F003FAFFF743FB94F827
:1024000044305BB2B3F1FF3FD1D094F845305BB2BA
:10241000B3F1FF3FCFD0FFF757FB01A902A807F0A8
:102420007DFC0028D1D12046FFF799FC0028C6D0BA
:10243000019904F1240007F0E7FB2046FFF7EBFCCD
:1024400007F086FA0028CAD14FF0E0234FF08052FF
:10245000C3F8042DBFF34F8FBFF36F8FBFE700208A
:1024600089E770B584B0019158B10446036C8BB113
:102470004FF0500383F31188BFF36F8FBFF34F8F7B
:10248000FEE74FF0500383F31188BFF36F8FBFF364
:102490004F8FFEE707F092FC054650B9019B63B1F0
:1024A0004FF0500383F31188BFF36F8FBFF34F8F4B
:1024B000FEE700231E461D4656E0064654E0013B5B
:1024C000A363236843B1236953B9FFF7FDFA0123DE
:1024D0001E46304604B070BD07F066FDA060F2E70E
:1024E00004F1100007F0C6FB0028EED04FF0E02307
:1024F0004FF08052C3F8042DBFF34F8FBFF36F8F9F
:10250000E3E746B14FF0500383F31188BFF36F8FB9
:10251000BFF34F8FFEE7FFF7D7FADAE702A807F01D
:10252000F1FB01252AE0002384F8443032E0002347
:1025300084F8453034E0FFF7A5FAA06807F04EFCB8
:102540000646FFF7C1FA3BE02046FFF764FC07F0C0
:10255000FFF909E02046FFF75EFC07F0F9F9204695
:10256000FFF7FDFB002842D1FFF78CFAA36B002B8D
:10257000A5D1019B002BC4D0002DCFD0FFF7A4FA2A
:1025800007F03EF9FFF77EFA94F844305BB2B3F1FE
:10259000FF3FC8D094F845305BB2B3F1FF3FC6D0DF
:1025A000FFF792FA01A902A807F0B8FB0028D1D1E1
:1025B0002046FFF7D4FB0028C6D02368002BBAD0F2
:1025C000019904F1240007F01FFB2046FFF723FCCC
:1025D00007F0BEF90028C7D14FF0E0234FF080523A
:1025E000C3F8042DBFF34F8FBFF36F8FBCE716B94D
:1025F00000231E466DE7FFF745FA2046FFF798FBDC
:102600000146A06807F07EFCFFF75EFAF0E788B1AC
:1026100070B50E46044683681D4607F0C9FB854227
:1026200011D031462046FFF71CFF80B1E36801332B
:10263000E3600CE04FF0500383F31188BFF36F8F1A
:10264000BFF34F8FFEE7E3680133E360012070BD05
:102650002DE9F843C0B10E4690460446E9B1FFF7B4
:1026600039FBEFF311834FF0500282F31188BFF36F
:102670006F8FBFF34F8F1F46A36B9946CBB9184698
:1026800087F31188BDE8F8834FF0500383F3118876
:10269000BFF36F8FBFF34F8FFEE7036C002BDED0CD
:1026A0004FF0500383F31188BFF36F8FBFF34F8F49
:1026B000FEE794F844305DB231462046FFF799FBBF
:1026C00009F1FF33A363B5F1FF3F06D02B46013379
:1026D0005BB284F844300120D2E723690BB90120B2
:1026E000CEE704F1100007F0C5FA28B143462BB13C
:1026F0000120C8F80000C3E70120C1E70120BFE7BF
:102700000023072B0CD8074A52F833200AB10133B3
:10271000F7E7044A42F8331002EBC30250607047F7
:10272000704700BF4448002070B504460D46164669
:10273000FFF7A8F994F844305BB2B3F1FF3F0DD036
:1027400094F845305BB2B3F1FF3F0BD0FFF7BCF913
:10275000A36B5BB12046FFF75EFB70BD002384F8DE
:102760004430EDE7002384F84530EFE73246294650
:1027700004F1240007F060FAECE7000008B5074B0D
:1027800001221A70FEF7CAF920B9044A137803F03F
:10279000FE031370014B187808BD00BF180000201D
:1027A00010B50446154B01221A70FEF703FA0228F1
:1027B00002D0124B187810BDFEF7D0F980B10F4B44
:1027C0001B78012BF5D00E4B1B687BB10C4B1B68A3
:1027D000002BEED1094A137843F001031370E8E7A8
:1027E0002046FFF7CBFF054B1870E8E71A46022199
:1027F0000A20FEF785FB024B1860E7E7180000206F
:102800008448002008B5FFF7B9FF08BD38B5054674
:10281000FEF732FA0446FEF72FFA001BA84204D254
:10282000FEF77CF90028F6D101E04FF0FF3038BD0B
:1028300070B582B00E4615461C4647F23050FFF781
:10284000E5FF002828DB224629463046FEF74EF9F0
:1028500008B1012021E047F2305302460DF1060194
:1028600010480068FEF79CFBC8B9BDF80630012B84
:1028700001D0012011E0FEF7FFF90446FEF7FCF954
:10288000001B47F22F53984204D8FEF747F900285F
:10289000F4D102E0012000E0012002B070BD01206F
:1028A000FBE700BF8448002070B582B00E46154695
:1028B0001C4647F23050FFF7A9FF002828DB2246CC
:1028C00029463046FEF71EF908B1012021E047F203
:1028D000305302460DF1060110480068FEF760FB18
:1028E000C8B9BDF80630022B01D0012011E0FEF777
:1028F000C3F90446FEF7C0F9001B47F22F53984274
:1029000004D8FEF70BF90028F4D102E0012000E022
:10291000012002B070BD0120FBE700BF8448002009
:1029200030B58BB0154B187810F001041FD1154647
:10293000022916D00AD8F1B1012905D101A8FEF764
:10294000F7F8079B2B6013E0042411E0032906D15C
:1029500001A8FEF7EDF8089B5B0A2B6008E0042451
:1029600006E001A8FEF7E4F8089B2B8000E00324B2
:1029700020460BB030BD0C46FAE700BF180000201F
:1029800008B5024B1B681B68984708BD1C00002057
:1029900008B50020FEF712FA014B986008BD00BF91
:1029A00088480020B0F84400084100F0010070475A
:1029B00010B50446002020606060E0602074FEF7DF
:1029C000FDF9A06010BD70B50546002400E001349B
:1029D0002B6CA3420DD955F82460E1B22846FFF7CD
:1029E000E1FF0028F3D03368002BF0D03046984741
:1029F000EDE770BDF8B507460D46002400E0013450
:102A00002B6CA34210D955F82460337CBB42F6D11D
:102A1000E1B22846FFF7C6FF0028F0D07368002B0C
:102A2000EDD030469847EAE7F8BD70B5054600247A
:102A300000E001342B6CA3420DD955F82460E1B2BB
:102A40002846FFF7AFFF0028F3D0B368002BF0D083
:102A500030469847EDE770BD38B505460C46FEF7A1
:102A6000D9F86C60FEF7EBF838BD70B504464FF04E
:102A7000FF318068FEF7EFF966689EB1002363605E
:102A800001232374A068FEF715FA4FF0FF31A06808
:102A9000FEF7E1F9E568A068FEF70CFA35B1FEF73C
:102AA00056F9F2E7A068FEF705FA11E0206808B1D0
:102AB000FFF7BBFF26603046FFF785FF4FF0FF3181
:102AC000A068FEF7C8F900232374A068FEF7F2F9A6
:102AD00070BD70B506460C464FF0FF31A068FEF79A
:102AE000BAF9237C2BB9256825B1E3680133E3608B
:102AF00000E00025A068FEF7DDF975B129463046F3
:102B0000FFF778FF4FF0FF31A068FEF7A4F9E36804
:102B1000013BE360A068FEF7CDF970BD70B50446D7
:102B200083684FF47A7202FB03F5074BA3FB05356C
:102B3000AD09FEF7A1F8064621682079FFF7C9FF25
:102B4000A819FEF723F9F7E7D34D621038B505460B
:102B5000FEF792F804462846FFF787FF04F10A00C3
:102B6000FEF714F9F7E7000038B505460E4C20468D
:102B7000FFF71EFF29462046FFF76EFF0022214681
:102B80000A48FEF783F80A4C00220A492046FEF75D
:102B90007DF8002208492046FEF778F80022074910
:102BA0002046FEF773F838BD984800204D2B0008EA
:102BB0001D2B0008400000203400002028000020C9
:102BC00010B5032000F09CF801F0A4FE10498B69B9
:102BD000C3F303230F4AD35C03F01F03D8408B6970
:102BE00003F00F03D35C03F01F0320FA03F30A4A38
:102BF00013600A4B18600F2005F024F818B1012368
:102C00001C46204610BD044601F0C8F8F9E700BF95
:102C1000004402589CAF00089C000020A000002047
:102C2000034B1B78034A11680B441360704700BFC5
:102C300094000020AC480020014B1868704700BF8A
:102C4000AC48002038B50446FFF7F6FF0546B4F15E
:102C5000FF3F02D0044B1B781C44FFF7EDFF401BE5
:102C6000A042FAD338BD00BF94000020014B186881
:102C7000000C70470010005C002807DB00F01F020A
:102C8000400901239340024A42F82030704700BFB8
:102C900000E100E0002804DB0901C9B2044B19542B
:102CA000704700F00F000901C9B2024B1954704778
:102CB00000E400E014ED00E000B500F00700A0F132
:102CC000030CBCF1040F07D8C0F1070E043006282E
:102CD00006D84FF0000C03E04FF0040E4FF0000C4C
:102CE0004FF0FF3303FA0EF021EA000101FA0CF174
:102CF00003FA0CF322EA030241EA020000BD0000DD
:102D00000649CB6823F4E0631B041B0C000200F4AB
:102D1000E0600343024A1A43CA60704700ED00E0D6
:102D20000000FA0510B50446054BD868C0F3022030
:102D3000FFF7C2FF01462046FFF7ACFF10BD00BF02
:102D400000ED00E008B5FFF797FF08BDBFF35F8F08
:102D5000044B5A6A22F480325A620022C3F894204B
:102D6000704700BF00ED00E040F00100054BC3F8E4
:102D700094005A6A42F480325A62BFF34F8FBFF315
:102D80006F8F704700ED00E04378144AC2F8983026
:102D9000D2F8A03023F00103C2F8A0304368C2F893
:102DA0009C30017BC37A1B0643EA0173817A43EAB4
:102DB000C143417B43EA8143817B43EA4143C17B79
:102DC00043EA0143417A43EA0123017A43EA41039A
:102DD00001780B43C2F8A030704700BF00ED00E05F
:102DE00070B50446FFF728FF002C00F08F810546E0
:102DF00094F83530022B06D080236365002384F8D5
:102E00003430012070BD23688B498C4A934218BF2F
:102E10008B4230D0183293422DD0183293422AD0B0
:102E20001832934227D01832934224D0183293425A
:102E300021D0183293421ED002F5567293421AD016
:102E40001832934217D01832934214D0183293425A
:102E500011D0183293420ED0183293420BD0183250
:102E6000934208D01832934205D01A6822F00E021D
:102E70001A60266809E01A6822F01E021A602268A9
:102E8000536923F080035361266823686A496B4ABB
:102E9000934218BF8B4242D0183293423FD018322F
:102EA00093423CD01832934239D01832934236D0F4
:102EB0001832934233D01832934230D002F5567212
:102EC00093422CD01832934229D01832934226D004
:102ED0001832934223D01832934220D018329342B2
:102EE0001DD0183293421AD01832934217D0544A48
:102EF000934214D01432934211D0143293420ED024
:102F0000143293420BD01432934208D014329342BD
:102F100005D01432934202D01432934204D1226E6F
:102F2000136823F48073136023684349434A934230
:102F300018BF8B422FD0183293422CD018329342B4
:102F400029D01832934226D01832934223D0183217
:102F5000934220D0183293421DD002F5567293420C
:102F600019D01832934216D01832934213D0183227
:102F7000934210D0183293420DD0183293420AD0A7
:102F80001832934207D01832934204D01A6822F0C4
:102F900001021A6003E01A6822F001021A60336825
:102FA00013F0010F0ED0FFF747FE431B052BF6D998
:102FB00020236365032384F83530002384F83430FC
:102FC00001201FE723681C491C4A934218BF8B420B
:102FD00038D01832934235D01832934232D018325A
:102FE00093422FD0183293422CD01832934229D0DA
:102FF0001832934226D002F55672934222D01832EC
:1030000093421FD0183293421CD01832934219D0E9
:103010001832934216D01832934213D0183293428A
:1030200010D0183293420DD0A16DE36D03F01F0252
:10303000012393404B600CE0100002402800024046
:1030400008540258A16DE36D03F01F023F23934023
:103050008B6023682E492F4A934218BF8B4242D07F
:10306000183293423FD0183293423CD018329342E8
:1030700039D01832934236D01832934233D01832B6
:10308000934230D002F5567293422CD018329342BC
:1030900029D01832934226D01832934223D01832C6
:1030A000934220D0183293421DD0183293421AD046
:1030B0001832934217D0184A934214D014329342D4
:1030C00011D0143293420ED0143293420BD01432EA
:1030D000934208D01432934205D01432934202D066
:1030E000143293420BD1636EA26E5A60E36E33B119
:1030F0001A6822F480721A60236F626F5A6001238B
:1031000084F83530002084F834007BE6012079E62D
:10311000100002402800024008540258002800F025
:10312000278108B5024690F83530022B03D0802362
:103130004365012008BD03688F4890498B4218BF42
:1031400083420CBF0120002065D018318B4262D031
:1031500018318B425FD018318B425CD018318B42D2
:1031600059D018318B4256D018318B4253D001F5CB
:1031700056718B424FD018318B424CD018318B4254
:1031800049D018318B4246D018318B4243D0183188
:103190008B4240D018318B423DD018318B423AD00F
:1031A000196821F00E0119601368734873498B4246
:1031B00018BF83426AD072498B4267D018318B4264
:1031C00064D018318B4261D018318B425ED01831F7
:1031D0008B425BD018318B4258D001F556718B422F
:1031E00054D018318B4251D018318B424ED0183107
:1031F0008B424BD018318B4248D018318B4245D08E
:1032000018318B4242D018318B423FD0196821F0DF
:10321000010119603EE0042182F8351080BB584A54
:1032200093422DD0183293422AD01832934227D09D
:103230001832934224D01832934221D0183293424C
:103240001ED002F5567293421AD01832934217D00C
:103250001832934214D01832934211D0183293424C
:103260000ED0183293420BD01832934208D0183245
:10327000934205D01A6822F001021A60002059E733
:103280001A6822F001021A60002053E7196821F041
:10329000010119601368384838498B4218BF8342CE
:1032A00042D018318B423FD018318B423CD018317C
:1032B0008B4239D018318B4236D018318B4233D003
:1032C00018318B4230D001F556718B422CD0183119
:1032D0008B4229D018318B4226D018318B4223D013
:1032E00018318B4220D018318B421DD018318B42BF
:1032F0001AD018318B4217D022498B4214D0143186
:103300008B4211D014318B420ED014318B420BD032
:1033100014318B4208D014318B4205D014318B42CA
:1033200002D014318B4217D1116E0B6823F48073D5
:103330000B60906DD36D03F01F0101238B40436040
:10334000536E916E5960D36E33B1196821F4807158
:103350001960136F516F5960012382F835300023D3
:1033600082F83430136D2BB1104698470020E1E607
:10337000012070471846DDE6100002402800024098
:10338000400002400854025870B582B086460023BF
:103390006CE0DEF808405D000320A84024EA000449
:1033A000C868A8402043CEF80800DEF8044024EAAC
:1033B0000C044868C0F3001098402043CEF8040085
:1033C00066E0DC0808345EF8240003F00705AD0071
:1033D0004FF00F0C0CFA05FC20EA0C0C0869A84011
:1033E00040EA0C004EF8240068E0092000E00020CC
:1033F00000FA0CF028430234674D45F824004FF0E2
:10340000B0400468D04324EA02054E6816F4801FD9
:1034100001D042EA04054FF0B0442560646800EA38
:1034200004054E6816F4001F01D042EA04054FF06F
:10343000B0446560D4F8844000EA04054E6816F490
:10344000003F01D042EA04054FF0B044C4F8845074
:10345000D4F8804020404D6815F4803F01D042EA06
:1034600004004FF0B042C2F8800001330A6832FA1B
:1034700003F000F08E804FF0010C0CFA03FC1CEA04
:103480000202F2D0486800F003000138012880D918
:10349000486800F0030003280BD0DEF80C405D0004
:1034A0000320A84024EA00048868A8402043CEF8FE
:1034B0000C00486800F00300022882D0DEF800000B
:1034C0005C004FF0030C0CFA04FC20EA0C0C48687A
:1034D00000F00300A04040EA0C00CEF8000048686D
:1034E00010F4403FC1D02D48D0F8F44044F002041D
:1034F000C0F8F440D0F8F40000F002000190019808
:103500009C08A51C244850F8255003F0030C4FEAF2
:103510008C0C0F2000FA0CF025EA000520488645A7
:103520003FF465AF00F58060864522D000F58060ED
:10353000864520D000F5806086451ED000F580606D
:1035400086451CD000F5806086451AD000F5806065
:10355000864518D000F58060864516D000F580605D
:10356000864514D000F5806086453FF43EAF0A20C2
:103570003EE701203CE702203AE7032038E7042039
:1035800036E7052034E7062032E7072030E7082039
:103590002EE702B070BD00BF00040058004402587E
:1035A000000002580369194201D001207047002031
:1035B00070470AB1816170470904816170470368EF
:1035C0009A6912F0020F01D000229A6203689A6988
:1035D00012F0010F03D19A6942F001029A6170471B
:1035E000DDF800C0C1F3090141EA0241194341EA93
:1035F0000C0121F00041026853684FEA5C5C0CF456
:10360000806C4CF07F7C4CF4583C4CF47F7C4CF04C
:10361000030C23EA0C030B43536070472DE9F04180
:10362000044603689E6916F010067ED00D4690464B
:103630001022DA61002637462368986910F0200FBF
:1036400032D18FBBB5F1FF3FF6D0FFF7F5FA434615
:10365000C01AA84201D8002DEED121684A6802F4B0
:10366000804294F84230DBB2886910F4004F04D0F5
:10367000203B18BF012302B973B923689B6913F07B
:10368000200FD9D1FFF7D8FA4346C01A1928F4D928
:1036900046F020060127CFE74B6843F480434B6098
:1036A000FFF7CAFA8046E8E70FB92022DA6146F050
:1036B000040601252268936913F4807F05D046F043
:1036C00001064FF48071D161012513F4806F06D09B
:1036D00046F0080622684FF48061D161012513F499
:1036E000007F24D046F0020623684FF40072DA61AE
:1036F00001252046FFF763FF2268536823F0FF731C
:1037000023F48B3323F4FF7323F001035360636CC2
:1037100033436364202384F84130002384F842302B
:1037200084F840302846BDE8F0810025C2E7002D2E
:10373000F8D0DEE770B504460D46164623689B694F
:1037400013F0020F22D1324629462046FFF766FFCA
:10375000F0B9B5F1FF3FF1D0FFF76EFA801BA84238
:1037600001D8002DEAD123689B6913F0020FE5D13F
:10377000636C43F020036364202384F8413000230A
:1037800084F8423084F84030012000E0002070BD11
:103790000120FCE72DE9F04104460F4616461D4680
:1037A000DDF8188023689B6937EA03030CBF012307
:1037B0000023B34227D1424629462046FFF72EFF79
:1037C00020BBB5F1FF3FEDD0FFF736FAA0EB0800C4
:1037D000A84201D8002DE5D123689B6937EA03038D
:1037E0000CBF01230023B342DCD1636C43F0200300
:1037F0006364202384F84130002384F8423084F845
:103800004030012000E00020BDE8F0810120FBE70E
:1038100070B504460D46164604E023689B6913F014
:10382000200F12D023689B6913F0200F1BD1324662
:1038300029462046FFF7F2FEB8B9FFF7FDF9801BD5
:10384000A842EAD8002DEDD1E7E7636C43F02003EE
:103850006364202384F84130002384F8423084F8E4
:103860004030012000E0002070BD0120FCE7F8B5E9
:1038700004460E461746002517E000236364FFF751
:10388000DBF9C01BB04200D87EB975B923689B69CB
:1038900013F0040F09D1636C43F020036364202309
:1038A00084F8413084F84050012523689B6913F067
:1038B000040F2DD165BB3A4631462046FFF7AEFED8
:1038C00000B1012523689A6912F0200FD7D0002D8E
:1038D000D5D19A699A6912F0100FCED01022DA6110
:1038E0000423636423682022DA6121684B6823F093
:1038F000FF7323F48B3323F4FF7323F001034B6036
:1039000084F8412084F8425084F840500125B6E7FD
:103910002846F8BD00285DD010B5044690F8413027
:10392000002B46D0242384F841302268136823F00A
:10393000010313606368226823F0706313612268D7
:10394000936823F400439360E368012B36D0A368A7
:10395000226843F404439360E368022B34D0226866
:10396000536823F400635360226851681A4B0B4379
:1039700053602268D36823F40043D36023696269EB
:103980001343A169226843EA0123D360E369216AF2
:1039900022680B4313602268136843F0010313602D
:1039A00000206064202384F84130206384F84200C2
:1039B00010BD80F8403000F00BFAB3E7A36822682E
:1039C00043F400439360C7E72268536843F40063FD
:1039D0005360C9E701207047008000022DE9F043E1
:1039E00083B089460A9E90F84110202940F0B480A7
:1039F00004461746984690F84030012B00F0B080FE
:103A00004FF0010380F84030FFF716F905460090AB
:103A1000192301224FF400412046FFF7BBFE002886
:103A200040F0A080212384F84130102384F84230F4
:103A300060646762A4F82A806063638D9BB2FF2B89
:103A40001ED9FF2323854FF08073228DEAB12268AF
:103A500039789162626A01326262628D92B2013A91
:103A600092B26285228D013A92B22285D2B201329F
:103A700040490091D2B249462046FFF7B1FD18E017
:103A8000638D23854FF00073DFE73A490091D2B28E
:103A900049462046FFF7A4FD0BE0628D92B22285D5
:103AA000002300934FF00073D2B249462046FFF73F
:103AB00097FD638D9BB2002B32D02A4631462046BB
:103AC000FFF738FE00284FD1626A236812789A62A5
:103AD000636A01336362638D9BB2013B9BB2638572
:103AE000238D013B9BB22385628D92B2002AE0D0E8
:103AF000002BDED100953346024680212046FFF799
:103B000049FE98BB638D9BB2FF2BC6D9FF2222854D
:103B100000904FF0807349462046FFF761FDC8E7EB
:103B20002A4631462046FFF773FE08BB2368202251
:103B3000DA6121684B6823F0FF7323F48B3323F49D
:103B4000FF7323F001034B6084F84120002384F8C5
:103B5000423084F8403000E0022003B0BDE8F0833A
:103B60000220FAE70120F8E70120F6E70120F4E758
:103B70000120F2E7002000802DE9F04383B00F46DA
:103B80000A9E90F84110202940F0A08004469146FA
:103B9000984690F84030012B00F09C804FF00103D4
:103BA00080F84030FFF748F80546009019230122BD
:103BB0004FF400412046FFF7EDFD002840F08C80D7
:103BC000222384F84130102384F842306064C4F822
:103BD0002490A4F82A806063638D9BB2FF2B0AD9DE
:103BE000FF222285404B00934FF0807339462046D8
:103BF000FFF7F6FC18E0628D92B222853A4B0093F3
:103C00004FF00073D2B239462046FFF7E9FC0BE0D3
:103C1000628D92B22285002300934FF00073D2B2DE
:103C200039462046FFF7DCFC638D9BB2002B31D078
:103C30002A4631462046FFF71AFE00284ED1236857
:103C40005A6A636A1A70636A01336362228D013AA9
:103C500092B22285638D9BB2013B9BB26385638DDB
:103C60009BB2002BE0D0002ADED1009533468021A4
:103C70002046FFF78FFD98BB638D9BB2FF2BC7D902
:103C8000FF22228500904FF0807339462046FFF7CF
:103C9000A7FCC9E72A4631462046FFF7B9FD08BB15
:103CA00023682022DA6121684B6823F0FF7323F434
:103CB0008B3323F4FF7323F001034B6084F841201E
:103CC000002384F8423084F8403000E0022003B042
:103CD000BDE8F0830220FAE70120F8E70120F6E7CB
:103CE0000120F4E70120F2E700240080034690F869
:103CF0004120202A23D190F84020012A21D00122FE
:103D000080F84020242280F841200068026822F0D8
:103D1000010202601868026822F48052026018688A
:103D200002680A43026019680A6842F001020A60E8
:103D3000202283F84120002083F8400070470220B1
:103D4000704702207047034690F84120202A21D175
:103D500090F84020012A1FD0012280F84020242220
:103D600080F841200068026822F0010202601868B1
:103D7000026822F4706242EA0122026019680A684D
:103D800042F001020A60202283F84120002083F8DB
:103D900040007047022070470220704700B583B092
:103DA0000A4BD3F8F42042F00202C3F8F420D3F80F
:103DB000F43003F002030193019B00220F216FF006
:103DC0000100FEF7AFFF03B000BD00BF0044025882
:103DD00010B5B8B004460021339134913591369135
:103DE0003791C02202A806F052FB22681B4B9A4270
:103DF00001D038B010BD08220023CDE9022302A86B
:103E000001F044F930BB164CD4F8E03043F0020323
:103E1000C4F8E030D4F8E03003F002030093009BD4
:103E2000C023339312233493002335933693042312
:103E3000379333A90B48FFF7A7FAD4F8E83043F4D7
:103E40000013C4F8E830D4F8E83003F40013019309
:103E5000019BCEE7FDF7A0FBD5E700BF0054004073
:103E60000044025800040258F0B5BBB004460021DB
:103E700035913691379138913991C02204A806F0D6
:103E800006FB2268284B9A4201D03BB0F0BD4FF4AC
:103E900080320023CDE9042304A801F0F7F80028BC
:103EA0003ED1224BD3F8D42042F48032C3F8D42040
:103EB000D3F8D42002F480320192019AD3F8E020A2
:103EC00042F00402C3F8E020D3F8E02002F004023C
:103ED0000292029AD3F8E02042F00802C3F8E020F0
:103EE000D3F8E03003F008030393039B4FF48853A7
:103EF00035930224369400253795032638960C27EF
:103F0000399735A90A48FFF73FFA042335933694C9
:103F100037953896399735A90648FFF735FAB4E74B
:103F2000FDF73AFBBDE700BF0070005200440258A5
:103F300000080258000C025810B5B8B00446002121
:103F400033913491359136913791C02202A806F011
:103F50009EFA22681B4B9A4201D038B010BD4FF434
:103F600080520023CDE9022302A801F08FF830BB74
:103F7000154BD3F8F02042F48052C3F8F020D3F868
:103F8000F02002F480520092009AD3F8E02042F030
:103F90000202C3F8E020D3F8E03003F002030193FB
:103FA000019B3823339302233493002335933693B4
:103FB0000523379333A90548FFF7E6F9CDE7FDF769
:103FC000EBFAD5E7003001400044025800040258E3
:103FD00000B585B00368B3F1804F07D0244A9342FF
:103FE0001AD0244A93422DD005B000BD224BD3F8FD
:103FF000E82042F00102C3F8E820D3F8E83003F0EB
:1040000001030193019B002205211C20FEF78AFE7B
:104010001C20FEF797FEE7E7174BD3F8E82042F0A5
:104020000202C3F8E820D3F8E83003F00203029359
:10403000029B002205211D20FEF774FE1D20FEF7C5
:1040400081FED1E70C4BD3F8E82042F01002C3F810
:10405000E820D3F8E83003F010030393039B002219
:1040600005213620FEF75EFE3620FEF76BFEBBE72D
:1040700000040040001000400044025810B5BCB0DD
:10408000044600213791389139913A913B91C022F1
:1040900006A806F0FCF92368554A934207D0554A12
:1040A00093423ED0544A93426ED03CB010BD02229F
:1040B0000023CDE9062306A800F0E8FF70BB4F4BB4
:1040C000D3F8E82042F40022C3F8E820D3F8E8202F
:1040D00002F400220092009AD3F8E02042F001029C
:1040E000C3F8E020D3F8E03003F001030193019B13
:1040F0000323379302233893002339933A930823F9
:104100003B9337A93E48FFF73FF9002205213420B1
:10411000FEF708FE3420FEF715FEC6E7FDF73CFA71
:10412000CDE702220023CDE9062306A800F0AEFF6A
:1041300038BB324BD3F8E82042F48012C3F8E820B1
:10414000D3F8E82002F480120292029AD3F8E02019
:1041500042F00202C3F8E020D3F8E03003F002039B
:104160000393039B4FF44053379302233893002368
:1041700039933A930E233B9337A92248FFF704F96A
:1041800093E7FDF709FAD4E702220023CDE90623DD
:1041900006A800F07BFF38BB184BD3F8E82042F0AC
:1041A0008042C3F8E820D3F8E82002F0804204926D
:1041B000049AD3F8E02042F01002C3F8E020D3F8CC
:1041C000E03003F010030593059B4FF4C073379361
:1041D00002233893002339933A9307233B9337A95B
:1041E0000948FFF7D1F860E7FDF7D6F9D4E700BF3B
:1041F000004C00400050004000780040004402584D
:10420000000002580004025800100258134BDB68EB
:1042100013F0040F07D1114BDB6803F0070383424F
:104220001AD00120704710B50C4AD36823F0070359
:104230000343D360FEF700FD0446084B5B6813F4AC
:10424000005F07D1FEF7F8FC001BB0F57A7FF4D9C8
:10425000012000E0002010BD0020704700480258F7
:10426000002800F03A8338B50446036813F0010FC4
:1042700025D0944A136903F03803926A102B15D0A5
:10428000182B0FD06368B3F5803F3FD0002B53D17C
:104290008C4B1A6822F480321A601A6822F4802249
:1042A0001A6038E002F00302022AEBD1854B1B684A
:1042B00013F4003F03D06368002B00F010832368E1
:1042C00013F0020F00F0A1807E4A1369926A13F086
:1042D00038035AD0182B55D0E368002B00F0DE804D
:1042E00078490A6822F0190213430B60FEF7A4FC18
:1042F0000546744B1B6813F0040F40F0AD80FEF7C9
:104300009BFC401B0228F4D90320EFE26D4A13689E
:1043100043F48033136063682BB3FEF78DFC0546CE
:10432000684B1B6813F4003FC9D1FEF785FC401BA6
:104330006428F5D90320D9E2B3F5A02F09D0614B49
:104340001A6822F480321A601A6822F480221A60F5
:10435000E1E75C4B1A6842F480221A601A6842F462
:1043600080321A60D7E7FEF767FC0546554B1B689D
:1043700013F4003FA3D0FEF75FFC401B6428F5D97F
:104380000320B3E212F0030FA6D14E4B1B6813F0CB
:10439000040F03D0E368002B00F0A382494A13689E
:1043A00023F01903E1680B431360FEF745FC054653
:1043B000444B1B6813F0040F06D1FEF73DFC401B75
:1043C0000228F5D9032091E2FEF750FC41F20303E5
:1043D000984212D82269402A07D03A494B6823F400
:1043E0007C3343EA02334B600FE0364A536823F4D0
:1043F0007C3343F40033536007E0324A536823F0C0
:10440000FE43216943EA01635360236813F0100FF0
:1044100000F088802B4A136903F03803926A082B56
:1044200056D0182B50D0E369002B00F0B880254AF5
:10443000136843F080031360FEF7FEFB0546214B33
:104440001B6813F4807F40F08880FEF7F5FB401B6B
:104450000228F4D9032049E2FEF708FC41F20303E5
:10446000984212D82269402A07D016494B6823F493
:104470007C3343EA02334B60C7E7124A536823F4A4
:104480007C3343F400335360BFE70E4A536823F094
:10449000FE43216943EA01635360B6E7094A1368A2
:1044A00023F001031360FEF7C7FB0546054B1B68AD
:1044B00013F0040FA9D0FEF7BFFB401B0228F5D96B
:1044C000032013E20044025802F00302012AAAD199
:1044D000994B1B6813F4807F03D0E369802B40F075
:1044E0000282FEF7C3FB41F20303984212D8226A0C
:1044F000202A07D090494B6823F0F84343EA8263AF
:104500004B600FE08C4A536823F0F84343F080433C
:10451000536007E0884AD36823F07C53216A43EA5A
:104520000163D360236813F0080F60D06369002B28
:1045300049D0814A536F43F001035367FEF77CFB78
:1045400005467D4B5B6F13F0020F50D1FEF774FBF5
:10455000401B0228F5D90320C8E1FEF787FB41F292
:104560000303984212D8226A202A07D072494B6866
:1045700023F0F84343EA82634B60D3E76E4A536803
:1045800023F0F84343F080435360CBE76A4AD36893
:1045900023F07C53216A43EA0163D360C2E7664A91
:1045A000136823F080031360FEF746FB0546624B59
:1045B0001B6813F4807FB5D0FEF73EFB401B02283A
:1045C000F5D9032092E15C4A536F23F0010353674E
:1045D000FEF732FB0546584B5B6F13F0020F06D017
:1045E000FEF72AFB401B0228F5D903207EE1236851
:1045F00013F0200F29D0A3699BB14F4A136843F4ED
:1046000080531360FEF718FB05464B4B1B6813F4F1
:10461000005F1AD1FEF710FB401B0228F5D90320DA
:1046200064E1454A136823F480531360FEF704FBEA
:104630000546414B1B6813F4005F06D0FEF7FCFAF9
:10464000401B0228F5D9032050E1236813F0040F22
:1046500021D1636A002B00F04881374A126902F0C9
:104660003802182A00F0EF80022B7AD0324A136801
:1046700023F080731360FEF7DFFA04462E4B1B68AD
:1046800013F0007F00F0DD80FEF7D6FA001B022851
:10469000F4D903202AE1294A136843F48073136094
:1046A000FEF7CAFA0546254B1B6813F4807F06D136
:1046B000FEF7C2FA401B6428F5D9032016E1A3686F
:1046C000012B0AD00BBB1C4B1A6F22F001021A6798
:1046D0001A6F22F004021A6704E0174A136F43F0BE
:1046E00001031367A3685BB3FEF7A6FA0546124BF6
:1046F0001B6F13F0020FACD1FEF79EFA401B41F284
:1047000088339842F3D90320F0E0052B09D00A4BF7
:104710001A6F22F001021A671A6F22F004021A6758
:10472000E0E7054B1A6F42F004021A671A6F42F075
:1047300001021A67D6E700BF004402580048025839
:10474000FEF77AFA0546714B1B6F13F0020F80D00B
:10475000FEF772FA401B41F288339842F3D90320E6
:10476000C4E06A4A136823F080731360FEF764FAAA
:104770000546664B1B6813F0007F06D0FEF75CFA17
:10478000401B0228F5D90320B0E0604B996A604ACB
:104790000A40A16AE06A41EA00110A439A62226B68
:1047A000013AC2F30802616B0139490289B20A4336
:1047B000A16B0139090401F4FE010A43E16B0139DF
:1047C000090601F0FE410A431A63DA6A22F0010287
:1047D000DA625A6B6FF3CF02A16C42EAC1025A63EC
:1047E000DA6A22F00C02216C0A43DA62DA6A22F0F9
:1047F0000202616C0A43DA62DA6A42F48032DA62F7
:10480000DA6A42F40032DA62DA6A42F48022DA6268
:10481000DA6A42F00102DA621A6842F080721A60C3
:10482000FEF70AFA0446394B1B6813F0007F06D1E5
:10483000FEF702FA001B0228F5D9032056E00020FB
:1048400054E0002052E0314A916A106B012B4ED0A7
:1048500001F00303A26A93424BD1C1F30511E36A4D
:10486000994248D1C0F30802236B013B9A4244D1DC
:10487000C0F34622636B013B9A4240D1C0F306422B
:10488000A36B013B9A423CD1C0F30660E36B013B52
:10489000984238D11D4B5B6BC3F3CC03A26C9A4298
:1048A00001D1002022E0194AD36A23F00103D36228
:1048B000FEF7C2F90546FEF7BFF9A842FBD0134A3E
:1048C000536B6FF3CF03A16C43EAC1035363D36A05
:1048D00043F00103D362002008E00120704701206B
:1048E00004E0012002E0012000E0184638BD01206C
:1048F000FCE70120FAE70120F8E70120F6E70120B4
:10490000F4E70120F2E70120F0E700BF004402587D
:104910000CFCFFFF744B1B6903F03803102B00F0F5
:10492000DD80182B0FD0002B40F0DA806E4B1B6817
:1049300013F0200F00F0D6806B4B1B68C3F3C1034C
:104940006A48D8407047684B9A6A02F00302D3F86D
:1049500028C0CCF30510D96A01F001015B6BC3F3E9
:10496000CC0301FB03F307EE903AF8EE677A1CF4F0
:104970007C7F00F0B880012A4AD0022A74D0002A35
:1049800040F08F80584B1B6813F0200F23D05649FE
:104990000A68C2F3C102554BD34007EE103AF8EE55
:1049A000476A07EE100AB8EE476A86EE867A0B6B06
:1049B000C3F3080306EE903AF8EE666A9FED4C6A80
:1049C00067EE867A76EEA77AF7EE006A77EEA67A39
:1049D00027EE277A38E007EE100AF8EE476A9FEDD7
:1049E000456A86EE267A404B1B6BC3F3080306EE3E
:1049F000903AF8EE666A9FED3E6A67EE867A76EE4A
:104A0000A77AF7EE006A77EEA67A27EE277A1BE000
:104A100007EE100AF8EE476A9FED376A86EE267AAF
:104A2000314B1B6BC3F3080306EE903AF8EE666A4F
:104A30009FED2F6A67EE867A76EEA77AF7EE006A28
:104A400077EEA67A27EE277A274B1B6BC3F3462314
:104A5000013307EE903AF8EE677AC7EE276AFCEE6C
:104A6000E67A17EE900A704707EE100AF8EE476AEA
:104A70009FED226A86EE267A1B4B1B6BC3F308035D
:104A800006EE903AF8EE666A9FED196A67EE867A4E
:104A900076EEA77AF7EE006A77EEA67A27EE277A07
:104AA000D2E707EE100AF8EE476A9FED136A86EE2A
:104AB000267A0D4B1B6BC3F3080306EE903AF8EE13
:104AC000666A9FED0B6A67EE867A76EEA77AF7EE56
:104AD000006A77EEA67A27EE277AB5E7084870478E
:104AE0000848704701487047004402580090D003BE
:104AF000000000390024744C0024744A0024744BD4
:104B00000024F40000093D00002800F0328170B557
:104B10000D4604469B4B1B6803F00F038B420BD2E0
:104B2000984A136823F00F030B431360136803F0D4
:104B30000F038B4240F01F81236813F0040F0CD049
:104B40002269914B9B6903F070039A4205D98E4903
:104B50008B6923F070031A438A61236813F0080FEE
:104B60000CD06269884BDB6903F070039A4205D967
:104B70008549CB6923F070031A43CA61236813F097
:104B8000100F0CD0A269804BDB6903F4E0639A42FA
:104B900005D97D49CB6923F4E0631A43CA612368D0
:104BA00013F0200F0CD0E269774B1B6A03F07003FF
:104BB0009A4205D974490B6A23F070031A430A62BA
:104BC000236813F0020F0CD0E2686F4B9B6903F06F
:104BD0000F039A4205D96C498B6923F00F031A43DE
:104BE0008A61236813F0010F41D0674A936923F467
:104BF0007063A1680B4393616368022B0AD0032B97
:104C000027D0012B2CD0604A126812F0040F06D175
:104C10000120ADE0126812F4003F00F0AE805A4966
:104C20000A6922F0070213430B61FEF705F80646F6
:104C3000554B1B6903F038036268B3EBC20F16D003
:104C4000FDF7FAFF801B41F288339842F0D9032028
:104C50008EE04D4A126812F0007FE0D1012087E01B
:104C6000494A126812F4807FD9D1012080E023687C
:104C700013F0020F0CD0E268434B9B6903F00F0363
:104C80009A4205D240498B6923F00F031A438A6187
:104C90003C4B1B6803F00F03AB420AD9394A136837
:104CA00023F00F032B431360136803F00F03AB4291
:104CB00065D1236813F0040F0CD02269324B9B6935
:104CC00003F070039A4205D22F498B6923F07003D9
:104CD0001A438A61236813F0080F0CD062692A4BCB
:104CE000DB6903F070039A4205D22749CB6923F0B0
:104CF00070031A43CA61236813F0100F0CD0A26925
:104D0000214BDB6903F4E0639A4205D21E49CB696B
:104D100023F4E0631A43CA61236813F0200F0CD018
:104D2000E269194B1B6A03F070039A4205D21649D7
:104D30000B6A23F070031A430A62FFF7EBFD124976
:104D40008B69C3F30323114AD35C03F01F03D840DC
:104D50008B6903F00F03D35C03F01F0320FA03F306
:104D60000B4A13600B4B18600B4B186802F06AFF7C
:104D700070BD012070470120FAE70120F8E701200B
:104D8000F6E700BF00200052004402589CAF000824
:104D90009C000020A00000209800002008B5FFF72C
:104DA000B9FD0B4A9369C3F303230A49CB5C03F0B3
:104DB0001F0320FA03F3926902F00F02885C00F0EF
:104DC0001F0023FA00F0044A1060044A136008BD73
:104DD000004402589CAF00089C000020A000002066
:104DE00008B5FFF7DBFF054BDB69C3F30213044A89
:104DF000D35C03F01F03D84008BD00BF0044025835
:104E00009CAF000808B5FFF7C9FF054BDB69C3F38A
:104E10000223044AD35C03F01F03D84008BD00BF3F
:104E2000004402589CAF00083F230360114B1A69ED
:104E300002F0070242609A6902F4706282609A6925
:104E400002F00F02C2609A6902F070020261DA6930
:104E500002F070024261DA6902F4E06282611B6A68
:104E600003F07003C361044B1B6803F00F030B6076
:104E7000704700BF0044025800200052404B9B6A1C
:104E800003F00303032B79D070B505460E463C4A68
:104E9000136823F080631360FDF7CEFE0446384BA1
:104EA0001B6813F0006F06D0FDF7C6FE031B022B34
:104EB000F5D9032070BD324B9A6A22F47C322968FE
:104EC00042EA01329A626A68013AC2F30802A968AA
:104ED0000139490289B20A43E9680139090401F438
:104EE000FE010A4329690139090601F0FE410A431E
:104EF0009A63DA6A22F0C00269690A43DA62DA6AFE
:104F000022F02002A9690A43DA62DA6A22F010026A
:104F1000DA62DA6B6FF3CF02E96942EAC102DA635F
:104F2000DA6A42F01002DA62C6B9154AD36A43F46B
:104F30000023D362124A136843F080631360FDF7C5
:104F40007BFE04460E4B1B6813F0006F14D1FDF777
:104F500073FE001B0228F5D90320ABE7012E05D014
:104F6000074AD36A43F40013D362E3E7044AD36ADF
:104F700043F48013D362DDE700209BE701207047F4
:104F800000440258404B9B6A03F00303032B79D083
:104F900070B505460E463C4A136823F080531360F3
:104FA000FDF74AFE0446384B1B6813F0005F06D03D
:104FB000FDF742FE031B022BF5D9032070BD324BD7
:104FC0009A6A22F07C72296842EA01529A626A68FF
:104FD000013AC2F30802A9680139490289B20A43B9
:104FE000E9680139090401F4FE010A43296901391C
:104FF000090601F0FE410A431A64DA6A22F44062AB
:1050000069690A43DA62DA6A22F40072A9690A431A
:10501000DA62DA6A22F48072DA625A6C6FF3CF02D3
:10502000E96942EAC1025A64DA6A42F48072DA62D9
:10503000C6B9154AD36A43F48003D362124A13688F
:1050400043F080531360FDF7F7FD04460E4B1B68D9
:1050500013F0005F14D1FDF7EFFD001B0228F5D916
:105060000320ABE7012E05D0074AD36A43F08073D3
:10507000D362E3E7044AD36A43F40003D362DDE773
:1050800000209BE70120704700440258F8B5044611
:10509000036813F0006F30D0836EB3F5001F26D085
:1050A0000ED8ABB1B3F5801F07D102210830FFF74E
:1050B000E5FE054695B12E4621E0012635461EE067
:1050C000B3F5401F01D1002508E00126354616E062
:1050D0009B4AD36A43F40033D3620025984A136D88
:1050E00023F44013A16E0B431365002607E0022151
:1050F0002830FFF747FF0546DCE7002635462368E2
:1051000013F4807F1BD0A36D022B30D00CD843B397
:10511000012B06D1002104F10800FFF7AFFE054680
:1051200005E0012635460AE0033B012B26D845BBA6
:10513000834A136D23F00703A16D0B4313652368A6
:1051400013F4007F37D0E36D802B49D01ED82BB3EA
:10515000402B18D1002104F10800FFF78FFE05460F
:1051600021E0774AD36A43F40033D362DFE70021BA
:1051700004F12800FFF706FF0546D8E7012635466B
:10518000DDE72E46DBE70126354614E0C02B0AD0CA
:10519000B3F5807F07D0012635460CE0684AD36A14
:1051A00043F40033D36215BB654A136D23F4E073F7
:1051B000E16D0B431365236813F4806F3CD0D4F882
:1051C000A830B3F5800F2FD016D8F3B1B3F5001F78
:1051D0000FD1002104F10800FFF750FE054619E049
:1051E000002104F12800FFF7CDFE0546DBE72E463F
:1051F000E1E7012635461FE0B3F5C00F0AD0B3F54D
:10520000000F07D00126354616E04D4AD36A43F415
:105210000033D3627DB94A4A936D23F46003D4F816
:10522000A8100B43936507E0002104F12800FFF765
:10523000A9FE0546EEE72E46236813F4006F2BD037
:10524000D4F8AC30B3F1007F53D00DD8ABB1B3F18B
:10525000807F06D1002104F10800FFF70FFE05460C
:1052600010E00126354617E0B3F1407F0AD0B3F1D4
:10527000806F07D0012635460EE0314AD36A43F4E9
:105280000033D362002D3BD12D4A936D23F0E063B0
:10529000D4F8AC100B439365236813F0007F13D050
:1052A000E36C202B36D030D833B1102B2AD1244ACE
:1052B000D36A43F40033D3629DBB214AD36C23F0FD
:1052C0003003E16C0B43D364236813F4805F47D051
:1052D000236EB3F5005F00F08E8027D893B3B3F54B
:1052E000805F20D1002104F10800FFF7C7FD0546CB
:1052F0002DE0002104F12800FFF744FE0546C1E738
:105300002E46C9E701263546DEE7302BD4D00126EC
:105310003546D9E7022104F10800FFF7AFFD054645
:10532000CAE72E46D0E70126354619E0B3F5405FBF
:105330000DD0B3F5804F0AD00126354610E000BFEE
:1053400000440258484AD36A43F40033D362002D24
:1053500058D1454A136D23F4E043216E0B43136586
:10536000236813F4005F17D0636EB3F5003F5AD083
:105370004DD843B1B3F5803F46D1012104F1080077
:10538000FFF77CFD0546002D54D1374A136D23F4F9
:10539000E023616E0B431365236813F4804F19D02B
:1053A000D4F8B030B3F1005F55D048D843B1B3F171
:1053B000805F41D1012104F10800FFF75FFD054640
:1053C000002D4FD1284A936D23F0E043D4F8B0105C
:1053D0000B439365236813F4004F56D0236FB3F14A
:1053E000805F43D0B3F1005F00F07A81002B42D0A0
:1053F0000126354649E0002104F12800FFF7C2FDEF
:105400000546A4E72E46ABE701263546C4E7B3F5CB
:10541000802FB8D0B3F5A02FB5D0B3F5403FB2D0B0
:1054200001263546B8E7012104F12800FFF7AAFD5F
:105430000546A8E72E46AFE701263546CAE7B3F191
:10544000804FBDD0B3F1A04FBAD0B3F1405FB7D019
:1054500001263546BEE7012104F12800FFF792FD41
:105460000546ADE72E46B5E700440258AA4AD36A7E
:1054700043F40033D362002D40F03981A64A136D06
:1054800023F04053216F0B431365236813F0807F93
:1054900018D0A36C022B00F0358100F22D813BB1B6
:1054A000012B40F026819C4AD36A43F40033D36237
:1054B000002D40F02E81984AD36C23F00303A16C99
:1054C0000B43D364236813F4800F40F027812368D3
:1054D00013F0010F19D0E36F102B00F0928100F24E
:1054E000848143B1082B40F07D81012104F1080043
:1054F000FFF7C4FC0546002D40F08A81864A536DB3
:1055000023F03803E16F0B435365236813F0020F58
:1055100019D0A36F022B00F0878100F27E8143B186
:10552000012B40F07781012104F10800FFF7A6FC70
:105530000546002D40F07F81774A536D23F0070325
:10554000A16F0B435365236813F0040F1BD0D4F8ED
:105550009430022B00F07B8100F2728143B1012B69
:1055600040F06B81012104F10800FFF787FC05463C
:10557000002D40F07381684A936D23F00703D4F83F
:1055800094100B439365236813F0200F1DD0D4F8BB
:105590009030B3F1005F00F0758100F264814BB18F
:1055A000B3F1805F40F05C81002104F10800FFF757
:1055B00065FC0546002D40F06C81574A536D23F081
:1055C000E043D4F890100B435365236813F0400F69
:1055D0001DD0D4F89C30B3F5006F00F06E8100F25E
:1055E0005D814BB1B3F5806F40F05581002104F12E
:1055F0000800FFF743FC0546002D40F06581464A50
:10560000936D23F4E053D4F89C100B439365236807
:1056100013F0800F1DD0D4F8A030B3F5804F00F008
:10562000678100F256814BB1B3F5005F40F04E81C7
:10563000002104F10800FFF721FC0546002D40F091
:105640005E81354A936D23F46043D4F8A0100B4378
:105650009365236813F0080F0DD0D4F88430B3F5A8
:10566000805F00F04E812C4A536D23F44053D4F8F0
:1056700084100B435365236813F0100F0DD0D4F83A
:105680009830B3F5807F00F04681234A936D23F470
:105690004073D4F898100B439365236813F4002FDC
:1056A00000F04E81D4F8A430B3F5803F00F03D8186
:1056B000B3F5003F08D0002B40F03E81194604F1BD
:1056C0000800FFF7DBFB0546002D40F03881124A49
:1056D000936D23F44033D4F8A4100B4393652FE16A
:1056E000012104F10800FFF7C9FB0546C3E62E4679
:1056F000CBE601263546E5E6032B3FF4D9AE01267D
:105700003546DFE6022104F10800FFF7B7FB054646
:10571000CEE62E46D6E600BF00440258AD4A1368D6
:1057200043F480731360FDF787FA0746A94B1B68A3
:1057300013F4807F05D1FDF77FFAC01B6428F5D9EB
:105740000325002D4AD1A44B1B6FD4F8B42053403D
:1057500013F4407F0CD0A04B1A6F22F44072196FE3
:1057600041F480311967196F21F4803119671A6784
:10577000D4F8B430B3F5807F15D08DBBD4F8B430F5
:1057800003F44072B2F5407F1ED0934A136923F4AC
:105790007C53136190490B6FD4F8B420C2F30B0211
:1057A00013430B6793E6FDF747FA07468A4B1B6FD7
:1057B00013F0020FE1D1FDF73FFAC01B41F288332D
:1057C0009842F3D90325D8E78348026922F47C5232
:1057D000824901EA131313430361DBE72E4676E6A1
:1057E0002E4674E6012635468FE6202B3FF483AE25
:1057F000282B3FF480AE182B3FF47DAE01263546B2
:1058000083E6012104F12800FFF7BCFB054672E6A0
:105810002E467AE60126354695E6033B022B7FF6B7
:1058200088AE012635468EE6012104F12800FFF7F7
:10583000A9FB05467DE62E4685E601263546A2E60D
:10584000033B022B7FF694AE012635469BE60121F1
:1058500004F12800FFF796FB054689E62E4692E6FE
:1058600001263546B1E6B3F1804F3FF4A3AEB3F164
:10587000A04F3FF49FAEB3F1405F3FF49BAE0126D3
:105880003546A2E6022104F12800FFF77BFB05461E
:1058900090E62E4699E601263546B8E6B3F5805FD8
:1058A0003FF4AAAEB3F5A05F3FF4A6AEB3F5406FE8
:1058B0003FF4A2AE01263546A9E6022104F12800F4
:1058C000FFF760FB054697E62E46A0E60126354623
:1058D000BFE6B3F5004F3FF4B1AEB3F5204F3FF450
:1058E000ADAEB3F5C04F3FF4A9AE01263546B0E6E4
:1058F000022104F12800FFF745FB05469EE62E46EF
:10590000A7E6022104F12800FFF73CFB00283FF442
:10591000AAAE0126A7E6022104F12800FFF732FB18
:1059200000283FF4B2AE0126AFE6022104F12800C0
:10593000FFF728FB0546C7E60126354600E02E4660
:10594000236813F4802F18D0D4F88830B3F5001FE3
:105950001FD0B3F5401F07D0B3F5801F20D11E4ADA
:10596000D36A43F40033D362EDB91B4A536D23F479
:105970004013D4F888100B435365236813F4803F19
:105980002FD0236D8BB1B3F5803F1CD00126354657
:1059900027E0012104F12800FFF7F4FA0546E3E7C8
:1059A00001263546E9E72E46E7E70B4AD36A43F47A
:1059B0000033D362A5B9084AD36C23F48033216D38
:1059C0000B43D3640DE0022104F10800FFF756FAFF
:1059D0000546EFE70048025800440258CFFFFF0099
:1059E0002E46236813F0005F11D1236813F4003FA3
:1059F00028D0D4F88030B3F5807F14D010D9B3F517
:105A0000007F15D0B3F5407F12D001261AE00221A5
:105A100004F12800FFF7B6FA0028E6D00126E4E7F3
:105A200033B101260EE0544AD36A43F40033D36203
:105A3000002D69D1504A536D23F44073D4F880107F
:105A40000B435365236813F4801F06D04A4A136D35
:105A500023F00043616F0B431365236813F0805FED
:105A600007D0454A136923F48043D4F8B8100B4398
:105A70001361236813F4001F06D03F4A136D23F00F
:105A80008073E16E0B431365236813F0804F09D0D8
:105A9000394B1A6922F400421A611A69D4F8BC1011
:105AA0000A431A612368002B06DA334AD36C23F0C9
:105AB0004053616D0B43D364236813F4000F07D088
:105AC0002D4A536D23F44003D4F88C100B435365D7
:105AD000636813F0010F19D1636813F0020F1ED130
